:03000000020435C2
:0C043500787FE4F6D8FD75812002026497
:1003B30074656D7065726174757265206973200070
:0B03C30000000000000000000000002F
:06037A00D2B17FC87E0035
:10038000EF4E60127D7AEDD3940050031D80F7EF9D
:060390001F70ED1E80EA63
:010396002244
:0A0441008FA0D2B012037AC2B122DC
:0A044B008FA0C2B012037AC2B122E2
:0F0419007F3812044B7F0112044B7F0C02044BFF
:100355008B0D8A0E890FAB0DAA0EA90F1200F9603D
:1003650013050FE50F7002050E14F91200F9FF12BF
:05037500044180E222BA
:1003E900E4FDFCC3ED9FEE6480F8EC64809850074F
:0703F9000DBD00010C80ECBA
:0104000022D9
:10039700C2B57F1D7E001203E9D2B57F031203E9C0
:0B03A700A2B592007F191203E9A2002A
:0103B2002228
:0C042800E4FFC2B5D2B50FBF03FCA2B5C3
:0104340022A5
:10040100E4F50FC2B5300003D38001C392B57F0577
:070411007E001203E9D2B5E1
:0104180022C1
:10032700E4FBFA120428501374017E00A802088027
:1003370005C333CE33CED8F9FF8002EBFFEF42037C
:0D0347007F067E001203E90ABA08D8AF0352
:010354002286
:0203CF00AB077A
:1003D100E4FAEB139200120401EBC313FB0ABA080F
:0803E100F17F057E000203E933
:1002D600780D7C007D007BFF7A0379C37E007F0268
:1002E6001200D31203977FCC1203CF7F441203CFA1
:1002F600120327EFF460F97FF47E011203801203E4
:10030600977FCC1203CF7FBE1203CFE4F9120327E7
:10031600740D29F8A60709B909F37B007A00790D4F
:0103260022B4
:0401DC008E0D8F0EE7
:1001E000780F7C007D007BFF7A0379C57E007F0A53
:1001F0001200D3E4FBFAE50E450D70077F301204C0
:10020000418040D3E50E9400E50D64809480403336
:10021000AE0DAF0E7C007D0A120151ED2430FFE4DB
:100220003CFEEB25E0240FF8A60608A607AE0DAFAE
:100230000E7C007D0A1201518E0D8F0E0BBB00014A
:100240000A80C0EB1B70011AC3EA648094804013DB
:10025000EB25E0240FF808E6FF120441EB1B70E8E1
:030260001A80E51C
:010263002278
:10026400E4F50C1204197F8012044B1202D68B0998
:100274008A0A890BE92401F9E43AFA1200F95407CD
:1002840012013FAB09AA0AA90B1200F9C4540FF5D5
:1002940008E92401F9E43AFA1200F9C454F012010D
:1002A4003FAB09AA0AA90B9000011201122508F517
:1002B400087F8012044B7BFF7A0379B31203557FC6
:1002C400C012044BAF087E001201DC7FDF12044130
:0202D40080990F
:10000300E709F608DFFA8046E709F208DFFA803EDF
:1000130088828C83E709F0A3DFFA8032E309F608CC
:10002300DFFA8078E309F208DFFA807088828C8334
:10003300E309F0A3DFFA806489828A83E0A3F608E8
:10004300DFFA805889828A83E0A3F208DFFA804CC2
:1000530080D280FA80C680D4806980F28033801099
:1000630080A680EA809A80A880DA80E280CA803302
:1000730089828A83ECFAE493A3C8C582C8CCC5837A
:10008300CCF0A3C8C582C8CCC583CCDFE9DEE7804A
:100093000D89828A83E493A3F608DFF9ECFAA9F0C9
:1000A300EDFB2289828A83ECFAE0A3C8C582C8CC1F
:1000B300C583CCF0A3C8C582C8CCC583CCDFEADE38
:1000C300E880DB89828A83E493A3F208DFF980CC9A
:1000D30088F0EF60010E4E60C388F0ED2402B40493
:1000E3000050B9F582EB2402B4040050AF2323453A
:0600F3008223900053730C
:1000F900BB010689828A83E0225002E722BBFE0205
:09010900E32289828A83E4932237
:10011200BB010CE58229F582E5833AF583E02250A2
:1001220006E92582F8E622BBFE06E92582F8E222EC
:0D013200E58229F582E5833AF583E4932206
:10013F00BB010689828A83F0225002F722BBFE019F
:02014F00F32299
:10015100C2D5EC30E709B2D5E4C39DFDE49CFCEEC9
:1001610030E715B2D5E4C39FFFE49EFE120187C3B9
:10017100E49DFDE49CFC800312018730D507C3E4B4
:060181009FFFE49EFE2238
:10018700BC000BBE0029EF8DF084FFADF022E4CC5C
:10019700F875F008EF2FFFEE33FEEC33FCEE9DEC25
:1001A700984005FCEE9DFE0FD5F0E9E4CEFD22ED6B
:1001B700F8F5F0EE8420D21CFEADF075F008EF2FB5
:1001C700FFED33FD4007985006D5F0F222C398FDA6
:0501D7000FD5F0EA2243
:00000001FF
