:100DC80000000000000000004F00000000070007BE
:100DD8000000147F147F1400242A7F2A1200231392
:100DE800086462000002050200000005030000001C
:100DF8001C2241000000000041221C0014083E088B
:100E0800140008083E0808000050300000000808D8
:100E180008080800006060000000201008040200B4
:100E28003E5149453E0000427F4000004261514921
:100E380046002141454B31001814127F1000274508
:100E4800454539003C4A494930000171090503000C
:100E580036494949360006494949360000363600C0
:100E68000000005636000000081422410000141447
:100E7800141414000041221408000201510906004C
:100E8800324979413E007E1111117E007F4949495E
:100E980036003E41414122007F4141221C007F49EA
:100EA800494941007F09090901003E4149497A0041
:100EB8007F0808087F0000417F4100002040413F33
:100EC80001007F08142241007F40404040007F021B
:100ED8000C027F007F0408107F003E4141413E0024
:100EE8007F09090906003E4151215E007F09192941
:100EF800460046494949310001017F0101003F4050
:100F080040403F001F2040201F003F4038403F0026
:100F18006314081463000708700807006151494505
:100F280043007F4141000000020408010200000064
:100F380041417F000402010204004040404040005B
:100F48000001020400002054545478007F484444AF
:100F58003800384444442000384444487F0038541A
:100F680054541800087E090102000C5252523E00E7
:100F78007F080404780000447D40000000204044BD
:100F88003D007F102844000000417F4000007C04A1
:100F9800180478007C080404780038444444380075
:100FA8007C1414140800081414187C007C08040429
:100FB8000800485454542000043F444020003C405A
:100FC80040207C001C2040201C003C4030403C005D
:100FD8004428102844000C5050503C004464544CA1
:100FE800440008364100000000007F0000000000B7
:0A0FF8004136080000080408040058
:10144C00E4FDFCE4FBFAC3EB9FEA9E50070BBB00E8
:0F145C00010A80F20DBD00010CBC04E7BDFBE4EA
:01146B00225E
:1014D800C2B4D294D2938F80D2B6C2B67F027E00B5
:0314E80002144C9F
:10138E0075F006A424C8F582E5F0340DF583E582E8
:0B139E0029F582E43583F583E493FF1A
:0F13A900D2B48F80D2B6C2B67F027E0002144C3F
:061362008F30A903AF0566
:101368001214D8AF301214D8D294C293E924E0F5FD
:1013780031E4F9E9C39406748094805008E5311289
:05138800138E0980EE48
:01138D00223D
:0A11F7008F308D318B328A3389343A
:10120100AB32AA33A934120A94604EAF311214D80A
:10121100AF301214D8D294C293E4F536C3E53694B4
:101221000A7480948050D9AB32AA33A934120A943B
:1012310060CE24E0F53574012534F534E43533F519
:1012410033E4F9E9C39406748094805008E53512BB
:09125100138E0980EE053680C3FE
:01125A002271
:10132F00C2927F0A7E0012144CD2927F0112144C8B
:10133F00C2B6C294C293C2B5C2B47F3E1214D87F54
:10134F003F1214D87F401214D87FB81214D87FC020
:03135F000214D89D
:0212F500A90747
:1012F700D294D2939000B8AF821214D87F401214C0
:10130700D8E4F530F531AF011213A90531E5317095
:10131700020530C39440E5306480948040E8A3E53B
:071327008264C0458370D011
:01132E00229C
:10117000E4FBFAEFC313139201EF6003D38001C3C2
:101180009200D2A7D2A5D2A6D2A4C2A4C2A7D2A7A7
:10119000C2A7D2A7C2A7D2A7A20192A5C2A7D2A7CF
:1011A000A20092A5C2A7D2A7C2A7D2A7C2A7D2A7C0
:1011B000E4FDFCC2A730A61AC3740B9DFF7E007429
:1011C00001A807088005C333CE33CED8F94203EE19
:1011D0004202D2A70DBD00010CED640C4C70D4D2BC
:1011E000A4AE02AF03AD07AC06E41208E4E4FBFAD8
:0711F00079A0783A020739EB
:0C14FB00759850758920758DFDD28E22E9
:081525008F993099FDC2992253
:1013B8008B318A328933AB31AA32A933120A94604D
:1013C800130533E5337002053214F9120A94FF123B
:0513D800152580E22252
:08152D003098FDC298AF99222D
:04125B008E398F3AFF
:10125F00E4FBFAE53A4539602BAE39AF3A7C007DB5
:10126F000A120AADED2430FF0BEB70010A14243B78
:10127F00F8A607AE39AF3A7C007D0A120AAD8E3957
:10128F008F3A80CFEB1B70011AC3EA6480948040C1
:10129F0010743B2BF8E6FF121525EB1B70EB1A8031
:0112AF00E856
:0112B000221B
:081002008F338E328D318C30EA
:10100A0012091D12125BAF33AE32AD31AC30120988
:10101A001DAD07AC06EC1208E4A804A905AA06ABA4
:10102A0007AF33AE32AD31AC30120644E4FBFA7985
:10103A0080783F1206488F338E328D318C307F2E66
:10104A00121525AF33AE32AD31AC307B007A407920
:10105A001C78461207398044AF34EF3395E0FEC35B
:10106A00EF9404EE64809480503CAF33AE32AD31DD
:10107A00AC3012091D7C007D0A120AADED2430FF46
:10108A00AE34053474352EF8A607AF33AE32AD311F
:10109A00AC30E4FBFA792078411208428F338E3261
:1010AA008D318C3080B2E534600E153474352534B8
:0810BA00F8E6FF12152580EE97
:0110C200220B
:07153500D2B3D2B2C2B3220F
:1013DD00E4FEEEC39408748094805018C2B2C374B6
:1013ED00079EFDF8EF088002C313D8FC1392B3D209
:0413FD00B20E80DECE
:0114010022C8
:10140200E4FFFEEEC39408748094805017C2B2D2F7
:10141200B230B30DA8067480088002C313D8FC4210
:04142200070E80DF52
:0114260022A3
:1014A500AB051215351213DD1214B5AF031213DD9A
:0A14B500C2B2D2B3D2B220B3FD22BE
:07153C00C2B2D2B3D2B22209
:09151300C2B2D2B3D2B2C2B322BB
:1014BF00AE07AC031214A5AF041213DD1214B5124C
:0914CF00151C7F0A7E0002146C5A
:09151C00C2B2C2B3D2B2D2B322B2
:02148A00AC07AD
:10148C001214A5121513EC4401FF1213DD1214B53E
:09149C0012140212153C02151C89
:100003002A2A2A6D656E752A2A2A0D0A00312E5373
:1000130057495443480D0A00322E4C43440D0A00FD
:10002300332E454550524F4D0D0A00342E5350493F
:100033000D0A00352E474C43440D0A00636F6E6E64
:1000430065637420535720746F2050312E300D0A8E
:10005300007072657373206E6F770D0A0073776992
:1000630074636820697320776F726B696E672070A1
:10007300726F7065726C790D0A006D61792062652B
:10008300205357206973206E6F7420636F6E6E6503
:100093006374656420746F2050312E300D0A006D37
:1000A300617920626520596F7520686176652075D6
:1000B3007365642061637469766520686967682085
:1000C30073776974636820696E7374656164206F04
:1000D3006620616374697665206C6F772073776936
:1000E3007463680D0A0054455354204F4B2000415C
:1000F3004C4C706978656C73776F726B696E6700CF
:10010300636F6E6E656374204C434420746F20509C
:10011300300D0A00636F6E6E6563742052532C5268
:10012300532C454E20746F2050332E342C50332ED5
:10013300352C50332E36200D0A00636F6E6E6563C7
:1001430074204C43442F474C434420627574746FAE
:100153006E20746F204C4344206D6F64650D0A005C
:1001630050332E302C50332E312070696E2073772C
:100173006974636865732070756C6C20746F204FAD
:100183004E20736964650D0A00636865636B2077AD
:10019300686574686572206C636420697320776F87
:1001A300726B696E67206F72206E6F740D0A007038
:1001B3007265737320793A796573206E3A6E6F0DA9
:1001C3000A00636F6E6E6563742053434C2C534473
:1001D3004120746F2050332E322C50332E330D0AAE
:1001E30000636865636B2077686574686572206C6B
:1001F300636420697320636F6E6E65637465642046
:10020300746F2050300D0A00636865636B20776854
:10021300657468657220454550524F4D20697320BF
:10022300776F726B696E67206F72206E6F740D0A41
:1002330000636F6E6E6563742043532C4D4F5349B7
:100243002844494E292C4D49534F28444F5554298E
:100253002C434C4B20746F2050322E342C50322EB2
:10026300352C50322E362C50322E370D0A0063684F
:1002730065636B20746865204144432076616C7527
:10028300657320627920636F6E6E656374696E6750
:10029300206F6E6520656E64206F662070696E2026
:1002A300746F20616E79206F6620746865206368BF
:1002B300616E6E656C7320616E64206F7468657225
:1002C30020656E642075206861766520746F2063F5
:1002D3006F6E6E6563742065697468657220564439
:1002E30044206F7220474E440D0A00636865636BB8
:1002F3002077686574686572204D4350333230341B
:1003030020697320776F726B696E67206F72206E3E
:100313006F740D0A00766563746F7200636F6E6E9F
:10032300656374204C43442F474C434420627574E7
:10033300746F6E20746F20474C4344206D6F646567
:100343000D0A00636F6E6E65637420474C4344204F
:10035300746F20503000636F6E6E65637420525368
:1003630028442F49292C52572C454E20746F205076
:10037300332E342C50332E352C50332E360D0A00A9
:10038300636F6E6E6563742052532C4353312C4359
:10039300533220746F2050312E322C50312E332C97
:1003A30050312E340D0A00636865636B20776865EE
:1003B3007468657220474C434420697320776F72D9
:1003C3006B696E67206F72206E6F740D0A00796F10
:1003D30075206861766520656E7465726564206951
:1003E3006E61766C69642063686F6963650D0A00EA
:1003F3006572726F7220706F73736962696C69746E
:10040300696573206172653A0D0A007468657265E7
:10041300206D6179206265206C6F736520636F6E58
:100423006E656374696F6E0D0A006D617920626594
:1004330020474C43442F4C434420627574746F6EC1
:10044300206E6F7420636F6E6E65637465642074D1
:100453006F204C4344206D6F64650D0A006D617914
:100463002062652052532C525720454E2020617242
:1004730065206E6F7420636F6E6E656374656420B0
:10048300746F2050332E342C50332E352C50332E92
:1004930036206F72206E6F740D0A006D61792062D1
:1004A30065204C4344206461746170696E73284411
:1004B300302E2E2E2E44372920617265206E6F74E4
:1004C30020636F6E6E656374656420746F205030B3
:1004D300206F72206E6F740D0A006D617920626562
:1004E3002053434C2C5344412061726520636F6E4B
:1004F3006E65637465642020746F2050332E322C34
:1005030050332E330D0A006D617920626520454515
:1005130050524F4D284453313632312920697320CC
:100523006E6F7420776F726B696E670D0A006D6171
:100533007920626520204353206973206E6F7420F5
:10054300636F6E6E65637465642020746F20503230
:100553002E340D0A006D6179206265204D4F534999
:100563002844494E292C4D49534F28444F5554296B
:100573002C434C4B20617265206E6F7420636F6E49
:100583006E65637465642020746F2050325E352C71
:1005930050322E362C50322E370D0A006D617920E1
:1005A300626520474C43442F4C4344206275747466
:1005B3006F6E206E6F7420636F6E6E656374656417
:1005C30020746F20474C4344206D6F64650D0A000F
:1005D3006D61792062652020474C43442C52532897
:1005E300442F49292C525728522F57292C454E2C3A
:1005F30052532C4353322C43533120617265206E86
:100603006F7420636F6E6E656374656420746F200E
:1006130050302C50332E342C502E352C50332E3654
:100623002C50312E322C50312E332C50312E340D90
:0E0633000A0068656C6C6F002000000000007B
:100B460078217C007D007BFF7A0679357E007F0662
:100B5600120A6E78277C007D007BFF7A06793B7E41
:100B6600007F06120A6E1214FB1212B17BFF7A0086
:100B760079031213B87BFF7A0079101213B87BFF42
:100B86007A00791B1213B87BFF7A0079231213B807
:100B96007BFF7A00792E1213B87BFF7A0079361222
:100BA60013B812152DEF24CE6068147003020C7D65
:100BB600147003020CFD147003020D40240460033C
:100BC600020DBC752E0F752FA0E52F152F7002157F
:100BD6002E14452E600C3090097F017E0012146C95
:100BE60080E77BFF7A00793F1213B87BFF7A0079A2
:100BF600541213B87BFF2090067A007960800D7A34
:100C060000797D1213B87BFF7A0079A21213B8021D
:100C16000B721212B17F801215437BFF7A0079E9BD
:100C26001214277FC01215437BFF7A0079F2121443
:100C3600277BFF7A0179031213B87BFF7A017917B4
:100C46001213B87BFF7A01793D1213B87BFF7A0144
:100C560079631213B87BFF7A01798C1213B87BFF84
:100C66007A0179B21213B812152D7D071210C3EF4F
:100C76007003020B7280F0E4F52D7421252DF8E641
:100C8600FB600BAD2D7FA01214BF052D80ECE4F5A3
:100C96002D7421252DF8E66012AD2D7FA012148A41
:100CA6007427252DF8A607052D80E67FD07E07122E
:100CB600146C1212B17F841215437B007A007927D7
:100CC6001214277BFF7A0179C51213B87BFF7A01CC
:100CD60079E41213B87BFF7A02790B1213B87BFF03
:100CE6007A0179B21213B812152D7D081210C3EFCE
:100CF6007003020B7280F0E4FF1211701210027F73
:100D0600647E0012146C7BFF7A0279341213B87B6E
:100D1600FF7A0279711213B87BFF7A0279EE121309
:100D2600B87BFF7A0179B21213B812152D7D09121C
:100D360010C3EF7003020B7280F012132FE4FF1240
:100D460012F57FC01214D87B317D407FB812136232
:100D56007F967E0012144C7FC51214D87BFF7A034F
:100D660079187D477FBD1211F77F967E0012144CCD
:100D76007BFF7A03791F1213B87BFF7A0379461239
:100D860013B87BFF7A0379591213B87BFF7A03797C
:100D9600831213B87BFF7A0379AA1213B87BFF7A02
:100DA6000179B21213B812152D7D0A1210C3EF7015
:100DB60003020B7280F07BFF7A0379D11213B8021B
:020DC6000B72AE
:1010C3008D30EF64796008EF646E60037F0122EF77
:1010D300646E600302116D7BFF7A0379F31213B818
:1010E300E530640770237BFF7A04790E1213B87B13
:1010F300FF7A04792D1213B87BFF7A0479601213F7
:10110300B87BFF7A04799E805EE5306408701A7BB1
:10111300FF7A04790E1213B87BFF7A0479DD121378
:10112300B87BFF7A05790A803EE5306409701A7B43
:10113300FF7A04790E1213B87BFF7A057931121303
:10114300B87BFF7A057958801EE530640A701B7BF3
:10115300FF7A04790E1213B87BFF7A05799F121375
:0D116300B87BFF7A0579D31213B87F002204
:1014EB00C2B58F80D2B67F027E0012146CC2B622B8
:05154300C2B40214EB2C
:1012B1007F147E0012146C7F301215437F087E006C
:1012C10012146C7F301215437F027E0012146C7F62
:1012D100301215437F027E0012146C7F38121543C1
:1012E1007F101215437F011215437F061215437FAC
:0412F1000E02154391
:05154800D2B40214EB17
:101427008B308A318932AB30AA31A932120A9460E3
:10143700130532E5327002053114F9120A94FF12CE
:05144700154880E222BF
:10146C00D3EF9400EE940040147D7A7C00ED1D7057
:0D147C00011CED4C70F7EF1F70E61E80E3C1
:011489002240
:10064100020989E86480F8E933E83360110460F055
:10065100ED33EC337009E8FCE9FDEAFEEBFF22041F
:1006610060DED3EB9FEA9EE99DE8C2E78CF0C2F71A
:1006710095F0400CE8CCF8E9CDF9EACEFAEBCFFBE6
:1006810012095485D0F05804700320D5B3E80470E2
:10069100075002B2D502099392D5EC0460F7E4CC7D
:1006A100C0E0C398F8603B94186008400DD0E0FBAF
:1006B10002096BE4FBFAC9FC8028E830E406E4C9CE
:1006C100FBE4CAFCE830E305E4C9CACBFCE8540703
:1006D1006010F8C3E913F9EA13FAEB13FBEC13FC0E
:1006E100D8F130F52FC3E49CFCEF9BFFEE9AFEEDB1
:1006F10099FDD0E0FBEF4E4D4C701222DB03020955
:1007010090EC2CFCEF33FFEE33FEED33FDED30E7E3
:10071100EB02096BEF2BFFEE3AFEED39FDD0E0FB6A
:1007210050130BBB0003020993ED13FDEE13FEEF13
:0807310013FFEC13FC02096B3D
:10073900EC4D6011E8497017ED33EC3304600DE4BA
:10074900FCFFFEFD22E933E8330470F8020989123F
:10075900095458046009E4CC248150062850090240
:100769000993284003020990C0E0EB4A7044B9801C
:1007790006D0E0FB02097FEF4E701CBD8008EBFF3D
:10078900EAFEE9FD80EBE98DF0A4FEE5F00208221E
:10079900E9CDF9EAFEEBFFEF89F0A4FCE5F0CE899B
:1007A900F0A42EFFE435F0CD89F0A42DFEE435F058
:1007B9008067EF4E7005BD80D780C3EF8BF0A4AC86
:1007C900F0EE8BF0A42CFCE435F0F8EF8AF0A42CC1
:1007D900E5F038FCE433CB8DF0A42CFCE5F03BF8D4
:1007E900EE8AF0A42CFCE5F038F8E433CF89F0A4C4
:1007F9002CFCE5F038CF3400CE89F0A42FFFE5F0CA
:100809003EFEE433C98DF0A42EFEE5F039CD8AF021
:10081900A42FFFE5F03EFEE43DFD33D0E0FB500799
:100829000BBB000F020993EC2CFCEF33FFEE33FEF8
:06083900ED33FD02096B26
:10083F00020993EC5D046005E8590470030209890D
:10084F00120954580460F6EC4860F2EC7004FDFE97
:10085F00FF22C860DB2481C85009C398600250068C
:10086F000209909850CAF582E9294B4A7005AB826C
:10087F0002097F75F0007C1A7880C3EF9BEE9AED2A
:10088F0099400DC3EF9BFFEE9AFEED99FDE842F004
:10089F00DC23ACF0D0E0FFD0E0FED0E0FDAB822057
:1008AF00E7101BEB60BAEC2CFCEF33FFEE33FEEDE1
:1008BF0033FD02096BE803F830E705C0F075F0006F
:1008CF00EF2FFFEE33FEED33FD40B830E7C280AAC5
:1008DF0075F020800E75F010800575F0087D007E94
:1008EF00007F003392D530D503120AE3EC3340106A
:1008FF00EF33FFEE33FEED33FDEC33FCD5F0ED229D
:0E090F00E5F0247EA2D513CC92E7CDCEFF22D8
:10091D00EDD2E7CD33EC3392D524814006E4FFFED2
:10092D00FDFC22FCE4CFCECDCC24E0501174FF8031
:10093D00EDC3CC13CCCD13CDCE13CECF13CF0470CE
:07094D00F030D5DE020AE3E1
:10095400E9D2E7C933E833F892D5EDD2E7CD33ECE9
:0709640033FC5002B2D52262
:10096B00EC30E7100FBF000C0EBE00080DBD0004ED
:10097B000BEB6014A2D5EB13FCED92E7FD2274FF99
:10098B00FCFDFEFF22E480F8A2D574FF13FC7D80F2
:03099B00E480EF06
:03000000021507DF
:0C150700787FE4F6D8FD758144020B46A5
:10099E00E709F608DFFA8046E709F208DFFA803E3B
:1009AE0088828C83E709F0A3DFFA8032E309F60828
:1009BE00DFFA8078E309F208DFFA807088828C8390
:1009CE00E309F0A3DFFA806489828A83E0A3F60844
:1009DE00DFFA805889828A83E0A3F208DFFA804C1E
:1009EE0080D280FA80C680D4806980F280338010F5
:1009FE0080A680EA809A80A880DA80E280CA80335E
:100A0E0089828A83ECFAE493A3C8C582C8CCC583D5
:100A1E00CCF0A3C8C582C8CCC583CCDFE9DEE780A5
:100A2E000D89828A83E493A3F608DFF9ECFAA9F024
:100A3E00EDFB2289828A83ECFAE0A3C8C582C8CC7A
:100A4E00C583CCF0A3C8C582C8CCC583CCDFEADE93
:100A5E00E880DB89828A83E493A3F208DFF980CCF5
:100A6E0088F0EF60010E4E60C388F0ED2402B404EE
:100A7E000050B9F582EB2402B4040050AF23234595
:060A8E0082239009EE73C3
:100A9400BB010689828A83E0225002E722BBFE0260
:090AA400E32289828A83E4932293
:100AAD00C2D5EC30E709B2D5E4C39DFDE49CFCEE64
:100ABD0030E715B2D5E4C39FFFE49EFE120AF1C3E1
:100ACD00E49DFDE49CFC8003120AF130D507C3E4DC
:060ADD009FFFE49EFE22D3
:0E0AE300C3E49FFFE49EFEE49DFDE49CFC2224
:100AF100BC000BBE0029EF8DF084FFADF022E4CCE9
:100B0100F875F008EF2FFFEE33FEEC33FCEE9DECB1
:100B1100984005FCEE9DFE0FD5F0E9E4CEFD22EDF7
:100B2100F8F5F0EE8420D21CFEADF075F008EF2F41
:100B3100FFED33FD4007985006D5F0F222C398FD32
:050B41000FD5F0EA22CF
:00000001FF
