:10029300C2B58F80D2B67F027E001201EDC2B622B4
:0502DB00C2B402029311
:100184007F147E001201ED7F301202DB7F087E00B7
:100194001201ED7F301202DB7F027E001201ED7F3F
:1001A400301202DB7F027E001201ED7F381202DB87
:1001B4007F101202DB7F011202DB7F061202DB7F5B
:0401C4000E0202DB4A
:0502E000D2B4020293FC
:1001C8008B158A168917AB15AA16A9171200F9609C
:1001D800130517E5177002051614F91200F9FF1236
:0501E80002E080E222AC
:1001ED00D3EF9400EE940040147D7A7C00ED1D70E9
:0D01FD00011CED4C70F7EF1F70E61E80E353
:01020A0022D1
:0C02A30068656C6C6F002000000000001B
:1001120078087C007D007BFF7A0279A37E007F064F
:100122001200D3780E7C007D007BFF7A0279A97ED3
:10013200007F061200D3E4F51474082514F8E6FBD8
:10014200600BAD147FA012027A051480ECE4F51462
:1001520074082514F8E66012AD147FA012024474EC
:100162000E2514F8A607051480E67FD07E0712013B
:10017200ED1201847F801202DB7B007A00790E028D
:0201820001C8B2
:0702CD00D2A7D2A6C2A722AE
:10020B00E4FEC2A6C374079EFDEFA805088002C3D7
:0C021B0013D8FC1392A7D2A60EBE08E672
:0102270022B4
:10022800E4FFFEC2A6D2A630A70D7480A8060880F7
:0B02380002C313D8FC42070EBE08E80A
:010243002298
:10026000AB051202CD12020B120270AF0312020B89
:0A027000C2A6D2A7D2A620A7FD2245
:0702D400C2A6D2A7D2A622A8
:0902BB00C2A6D2A7D2A6C2A72256
:10027A00AE07AC03120260AF0412020B1202701234
:09028A0002C47F0A7E000201EDAE
:0902C400C2A6C2A7D2A6D2A7224D
:02024400AC0705
:100246001202601202BBEC4401FF12020B12027092
:090256001202281202D41202C4A3
:01025F00227C
:030000000202AF4A
:0C02AF00787FE4F6D8FD7581170201127B
:10000300E709F608DFFA8046E709F208DFFA803EDF
:1000130088828C83E709F0A3DFFA8032E309F608CC
:10002300DFFA8078E309F208DFFA807088828C8334
:10003300E309F0A3DFFA806489828A83E0A3F608E8
:10004300DFFA805889828A83E0A3F208DFFA804CC2
:1000530080D280FA80C680D4806980F28033801099
:1000630080A680EA809A80A880DA80E280CA803302
:1000730089828A83ECFAE493A3C8C582C8CCC5837A
:10008300CCF0A3C8C582C8CCC583CCDFE9DEE7804A
:100093000D89828A83E493A3F608DFF9ECFAA9F0C9
:1000A300EDFB2289828A83ECFAE0A3C8C582C8CC1F
:1000B300C583CCF0A3C8C582C8CCC583CCDFEADE38
:1000C300E880DB89828A83E493A3F208DFF980CC9A
:1000D30088F0EF60010E4E60C388F0ED2402B40493
:1000E3000050B9F582EB2402B4040050AF2323453A
:0600F3008223900053730C
:1000F900BB010689828A83E0225002E722BBFE0205
:09010900E32289828A83E4932237
:00000001FF
