:1000030000000000000000004F0000000007000790
:100013000000147F147F1400242A7F2A1200231364
:1000230008646200000205020000000503000000EE
:100033001C2241000000000041221C0014083E085D
:10004300140008083E0808000050300000000808AB
:100053000808080000606000000020100804020087
:100063003E5149453E0000427F40000042615149F4
:1000730046002141454B31001814127F10002745DB
:10008300454539003C4A49493000017109050300DF
:100093003649494936000649494936000036360093
:1000A300000000563600000008142241000014141A
:1000B300141414000041221408000201510906001F
:1000C300324979413E007E1111117E007F49494931
:1000D30036003E41414122007F4141221C007F49BD
:1000E300494941007F09090901003E4149497A0014
:1000F3007F0808087F0000417F4100002040413F06
:1001030001007F08142241007F40404040007F02ED
:100113000C027F007F0408107F003E4141413E00F6
:100123007F09090906003E4151215E007F09192913
:10013300460046494949310001017F0101003F4022
:1001430040403F001F2040201F003F4038403F00F9
:1001530063140814630007087008070061514945D8
:1001630043007F4141000000020408010200000037
:1001730041417F000402010204004040404040002E
:100183000001020400002054545478007F48444482
:100193003800384444442000384444487F003854ED
:1001A30054541800087E090102000C5252523E00BA
:1001B3007F080404780000447D4000000020404490
:1001C3003D007F102844000000417F4000007C0474
:1001D300180478007C080404780038444444380048
:1001E3007C1414140800081414187C007C080404FC
:1001F3000800485454542000043F444020003C402D
:1002030040207C001C2040201C003C4030403C002F
:100213004428102844000C5050503C004464544C73
:10022300440008364100000000007F000000000089
:0A023300413608000008040804002A
:0D03A400C2B4D2A2D2A38F80D2B6C2B622BC
:0A039100F582E43583F583E493FF61
:09039B00D2B48F80D2B6C2B622A2
:04032800AE07AF0568
:10032C001203A4AF061203A4D2A2C2A3EB24E0FED4
:10033C00E4FD75F006EEA42403F582E5F03400F537
:0B034C0083E5822D1203910DBD06E732
:010357002283
:04023D008F088D0990
:100241001203786045AF091203A4AF081203A4D2C8
:10025100A2C2A3E4FEEEC3940A50E5120378FF6044
:10026100DFEF24E0FD740129F9E43AFAE4FC75F0CA
:1002710006EDA42403F582E5F03400F583E5822C34
:0A0281001203910CBC06E70E80CBBF
:01028B002250
:10035800E4FDFCE4FBFAC3EB9FEA9E50070BBB00ED
:0F036800010A80F20DBD00010CBC04E7BDFBE4EF
:010377002263
:1002F700C2A17F0A7E00120358D2A17F01120358C0
:10030700C2B6C2A2C2A3C2B5C2B47F3E1203A40F33
:100317001203A40F1203A47FB81203A47FC0020321
:01032700A431
:0202C400AE0783
:1002C600D2A2D2A37DB87C00AF051203A47F401250
:1002D60003A4E4FBFAAF0612039B0BBB00010AEB77
:1002E60064404A70F00DBD00010CED64C04C70D83E
:0102F60022E5
:0703BD00766563746F7200A6
:10028C001202F7E4FF1202C47FC01203A47B317D7B
:10029C00407FB81203287F967E001203587FC51248
:1002AC0003A47BFF7A0379BD7D477FBD12023D7F9E
:0802BC00967E0012035880FE3B
:030000000203B147
:0C03B100787FE4F6D8FD75810902028C0B
:10037800BB010689828A83E0225002E722BBFE0283
:09038800E32289828A83E49322B6
:00000001FF
