:100DB40000000000000000004F00000000070007D2
:100DC4000000147F147F1400242A7F2A12002313A6
:100DD4000864620000020502000000050300000030
:100DE4001C2241000000000041221C0014083E089F
:100DF400140008083E0808000050300000000808ED
:100E040008080800006060000000201008040200C8
:100E14003E5149453E0000427F4000004261514935
:100E240046002141454B31001814127F100027451C
:100E3400454539003C4A4949300001710905030020
:100E440036494949360006494949360000363600D4
:100E5400000000563600000008142241000014145B
:100E64001414140000412214080002015109060060
:100E7400324979413E007E1111117E007F49494972
:100E840036003E41414122007F4141221C007F49FE
:100E9400494941007F09090901003E4149497A0055
:100EA4007F0808087F0000417F4100002040413F47
:100EB40001007F08142241007F40404040007F022F
:100EC4000C027F007F0408107F003E4141413E0038
:100ED4007F09090906003E4151215E007F09192955
:100EE400460046494949310001017F0101003F4064
:100EF40040403F001F2040201F003F4038403F003B
:100F04006314081463000708700807006151494519
:100F140043007F4141000000020408010200000078
:100F240041417F000402010204004040404040006F
:100F34000001020400002054545478007F484444C3
:100F44003800384444442000384444487F0038542E
:100F540054541800087E090102000C5252523E00FB
:100F64007F080404780000447D40000000204044D1
:100F74003D007F102844000000417F4000007C04B5
:100F8400180478007C080404780038444444380089
:100F94007C1414140800081414187C007C0804043D
:100FA4000800485454542000043F444020003C406E
:100FB40040207C001C2040201C003C4030403C0071
:100FC4004428102844000C5050503C004464544CB5
:100FD400440008364100000000007F0000000000CB
:0A0FE400413608000008040804006C
:10142500E4FDFCE4FBFAC3EB9FEA9E50070BBB000F
:0F143500010A80F20DBD00010CBC04E7BDFBE411
:011444002285
:1014EB00C2B4D294D2938FA0D2B6C2B67F027E0082
:0314FB00021425B3
:1013670075F006A424B4F582E5F0340DF583E58223
:0B13770029F582E43583F583E493FF41
:0F138200D2B48FA0D2B6C2B67F027E000214256D
:061402008F3FA903AF05B6
:101408001214EBAF3F1214EBD294C293E924E0F527
:0C14180040E4F9E54012136709B906F73B
:0114240022A5
:0A125D008F3F8D408B418A42894388
:10126700AB41AA42A9431205C16043AF401214EB38
:10127700AF3F1214EBD294C293E4F545E545C3940E
:101287000A50DDAB41AA42A9431205C1FF60D1EF65
:1012970024E0F54474012543F543E43542F542E47F
:0E12A700F9E54412136709B906F7054580CE34
:0112B5002216
:10133400C2927F0A7E00121425D2927F01121425D4
:10134400C2B6C294C293C2B5C2B47F3E1214EB7F3C
:101354003F1214EB7F401214EB7FB81214EB7FC0E2
:031364000214EB85
:0212FA00A90742
:1012FC00D294D2939000B8AF821214EB7F401214A8
:10130C00EBE4F53FF540AF011213820540E5407068
:10131C0002053FC39440E53F6480948040E8A3E518
:07132C008264C0458370D00C
:011333002297
:1011D500E4FBFAEFC313139201EF6003D38001C35D
:1011E5009200D2A7D2A5D2A6D2A4C2A4C2A7D2A742
:1011F500C2A7D2A7C2A7D2A7A20192A5C2A7D2A76A
:10120500A20092A5C2A7D2A7C2A7D2A7C2A7D2A75A
:10121500E4FDFCC2A730A61AC3740B9DFF74017EC2
:1012250000A807088005C333CE33CED8F94203EEB4
:101235004202D2A70DBD00010CED640C4C70D4D256
:10124500A4AE02AF03AD07AC06E412010EE4FBFA4F
:0712550079A0783A120003B2
:01125C00226F
:0C150E00759850758920758DFDD28E22D5
:081538008F993099FDC2992240
:1013B8008B3F8A408941AB3FAA40A9411205C160D1
:1013C800130541E5417002054014F91205C1FF12E9
:0513D800153880E2223F
:081540003098FDC298AF99221A
:07154800D2B3D2B2C2B322FC
:10146300E4FEC2B2C374079EFDEFA805088002C361
:0C14730013D8FC1392B3D2B20EBE08E6F0
:01147F00224A
:10148000E4FFFEC2B2D2B230B30D7480A806088069
:0B14900002C313D8FC42070EBE08E8A0
:01149B00222E
:1014B800AB051215481214631214C8AF0312146353
:0A14C800C2B2D2B3D2B220B3FD22AB
:07154F00C2B2D2B3D2B222F6
:09152600C2B2D2B3D2B2C2B322A8
:1014D200AE07AC031214B8AF041214631214C8128C
:0914E200152F7F0A7E000214455B
:09152F00C2B2C2B3D2B2D2B3229F
:02149C00AC079B
:10149E001214B8121526EC4401FF1214631214C86C
:0914AE0012148012154F12152FC3
:0114B7002212
:100ACC002A2A2A6D656E752A2A2A0D0A00312E53A0
:100ADC0057495443480D0A00322E4C43440D0A002A
:100AEC00332E454550524F4D0D0A00342E5350496C
:100AFC000D0A00352E474C43440D0A007072657385
:100B0C0073206E6F770D0A007377697463682069C0
:100B1C007320776F726B696E672070726F7065727D
:100B2C006C790D0A00737769746368206973206EA1
:100B3C006F7420776F726B696E672070726F70655F
:100B4C00726C790D0A00636865636B207768657455
:100B5C00686572206C636420697320646973706CBF
:100B6C006179696E67206F72206E6F7420696620E0
:100B7C00646973706C61792070726573732073771C
:100B8C00310D0A004C434420697320776F726B69F6
:100B9C006E672070726F7065726C790D0A004C4331
:100BAC0044206973206E6F7420776F726B696E6767
:100BBC002070726F7065726C790D0A0063686563E2
:100BCC006B207768657468657220454550524F4DAF
:100BDC0028445331363231292020697320777269C9
:100BEC0074696E67206279746520696E746F204C2D
:100BFC004344206F72206E6F74206966207772698F
:100C0C00746520696E746F204C4344207072657358
:100C1C0073207377310D0A00454550524F4D2844CF
:100C2C0053313632312920697320776F726B696EBC
:100C3C00672070726F7065726C790D0A00454550B3
:100C4C00524F4D2844533136323129206973206E6E
:100C5C006F7420776F726B696E672070726F70653E
:100C6C00726C790D0A00256600636865636B2077EA
:100C7C0068657468657220535049284D435033326F
:100C8C0030342920697320646973706C6179696EE2
:100C9C0067206F72206E6F742069662064697370B0
:100CAC006C6179207072657373207377310D0A0053
:100CBC00535049284D435033323034292069732026
:100CCC00776F726B696E672070726F7065726C797A
:100CDC000D0A00535049284D4350333230342920EB
:100CEC006973206E6F7420776F726B696E672070FA
:100CFC00726F7065726C790D0A00766563746F7231
:100D0C0000636865636B207768657468657220475B
:100D1C004C434420697320646973706C6179696E0B
:100D2C0067206F72206E6F7420696620646973701F
:100D3C006C6179207072657373207377310D0A00C2
:100D4C00474C434420697320776F726B696E672040
:100D5C0070726F7065726C790D0A00474C434420B9
:100D6C006973206E6F7420776F726B696E67207079
:100D7C00726F7065726C790D0A00796F75206861FD
:100D8C00766520656E746572656420696E61766C3B
:100D9C0069642063686F6963650D0A0068656C6C33
:080DAC006F00200000000000B0
:100FEE0078227C007D007BFF7A0D79A87E007F063B
:100FFE0012059B78287C007D007BFF7A0D79AE7EF2
:10100E00007F0612059B12150E1212B67BFF7A0A8E
:10101E0079CC1213B87BFF7A0A79D91213B87BFFF9
:10102E007A0A79E41213B87BFF7A0A79EC1213B8B4
:10103E007BFF7A0A79F71213B87BFF7A0A79FF12CF
:10104E0013B8121540EF24CE60511460741470035F
:10105E00021137147003021175240460030211C9C2
:10106E007BFF7A0B79081213B875330F7534A0E530
:10107E0034153470021533144533600C3090097FEB
:10108E00017E0012144580E77BFF2090077A0B79D2
:10109E00140211C37A0B79310211C37F80121556D7
:1010AE007F4112155B7BFF7A0B79521213B87BFFCF
:1010BE0020B7077A0B79900211C37A0B79AA021125
:1010CE00C3E4F52E7422252EF8E6FB600BAD2E7FC1
:1010DE00A01214D2052E80ECE4F52E7422252EF8E3
:1010EE00E66012AD2E7FA012149C7428252EF8A651
:1010FE0007052E80E67FD07E071214451212B67FAA
:10110E00801215567B007A0079281213DD7BFF7A48
:10111E000B79C81213B87BFF20B7077A0C7924021B
:10112E0011C37A0C79490211C3E4FF1211D58F3223
:10113E008E318D308C2F7542FF75430C7544728F36
:10114E00488E478D468C457B007A0079351206B95C
:10115E007F647E001214457F801215567B007A0044
:10116E0079351213DD80C2121334E4FF1212FA7FA6
:10117E00C01214EB7B317D407FB81214027F967E35
:10118E00001214257FC51214EB7BFF7A0D79067DB4
:10119E00477FBD12125D7F967E001214257BFF7A6B
:1011AE000D790D1213B87BFF20B7067A0D794C809E
:1011BE00047A0D79671213B802101A7BFF7A0D7933
:0711CE00861213B802101A8B
:1014FE00C2B58F80D2B67F027E00121445C2B622CC
:05155600C2B40214FE06
:1012B6007F147E001214457F301215567F087E007B
:1012C6001214457F301215567F027E001214457F98
:1012D600301215567F027E001214457F38121556BD
:1012E6007F101215567F011215567F061215567F6E
:0412F6000E02155679
:05155B00D2B40214FEF1
:1013DD008B3F8A408941AB3FAA40A9411205C160AC
:1013ED00130541E5417002054014F91205C1FF12C4
:0513FD00155B80E222F7
:10144500D3EF9400EE940040147D7A7C00ED1D707E
:0D145500011CED4C70F7EF1F70E61E80E3E8
:011462002267
:10000300EC4D6011E8497017ED33EC3304600DE4F7
:10001300FCFFFEFD22E933E8330470F802017C1291
:10002300014758046009E4CC248150062850090292
:100033000186284003020183C0E0EB4A7044B98083
:1000430006D0E0FB020172EF4E701CBD8008EBFF8F
:10005300EAFEE9FD80EBE98DF0A4FEE5F00200EC99
:10006300E9CDF9EAFEEBFFEF89F0A4FCE5F0CE89D8
:10007300F0A42EFFE435F0CD89F0A42DFEE435F095
:100083008067EF4E7005BD80D780C3EF8BF0A4ACC3
:10009300F0EE8BF0A42CFCE435F0F8EF8AF0A42CFE
:1000A300E5F038FCE433CB8DF0A42CFCE5F03BF811
:1000B300EE8AF0A42CFCE5F038F8E433CF89F0A401
:1000C3002CFCE5F038CF3400CE89F0A42FFFE5F007
:1000D3003EFEE433C98DF0A42EFEE5F039CD8AF05F
:1000E300A42FFFE5F03EFEE43DFD33D0E0FB5007D7
:1000F3000BBB000F020186EC2CFCEF33FFEE33FE4B
:06010300ED33FD02015E78
:1001090075F020800E75F010800575F0087D007E71
:10011900007F003392D530D503120619EC33401015
:10012900EF33FFEE33FEED33FDEC33FCD5F0ED227A
:0E013900E5F0247EA2D513CC92E7CDCEFF22B6
:10065D00E5562442F8E6055622783F3007027842E7
:10066D00E475F0011206270205C12000EB7F2ED2A2
:10067D00008018EF540F2490D43440D4FF30040B75
:10068D00EF24BFB41A0050032461FFE55760021533
:10069D0057055AE55A7002055930070D783FE47534
:1006AD00F001120627EF0206070213917403D20719
:1006BD008003E4C207F5568B3F8A408941E4F55724
:1006CD00F559F55AE55760077F2012069880F575A4
:1006DD0058FFC201C200C202C203C205C206C2084F
:1006ED00120666FF700D3007057F001206A9AF5A7E
:1006FD00AE5922B4255FC2D5C204120666FF24D0BE
:10070D00B40A00501A75F00A785730D50508B6FFAF
:10071D000106C6A426F620D5047002D20380D92482
:10072D00CFB41A00EF5004C2E5D204020996D201EB
:10073D0080C6D20080C0D20280BCD2D580BAD2058C
:10074D0080B47F201206982002077401B55700402F
:10075D00F112065DFF1206980206D1D208D206806C
:10076D009512065DFB12065DFA12065DF94A4B7095
:10077D0006798D7A0A7BFF20022EE557602A7E00CE
:10078D008E827583001205DA60060EEE655870F0E4
:10079D00C2D5EBC0E0EAC0E0E9C0E0EE1209F6D048
:1007AD00E0F9D0E0FAD0E0FB1205C1FF60AAEBC082
:1007BD00E0EAC0E0E9C0E0120698D0E02401F9D0EB
:1007CD00E03400FAD0E0FBE5580460DCD558D98060
:1007DD0087D20280A21209D960F7E5587001041280
:1007ED000191A958600DE558600914F558120A8059
:1007FD00EF60F3EA30E702F404C3995077EAF42589
:10080D00580430E701E404F558800D1209D960C190
:10081D00EA05582558120191EA7855F630E701E4BA
:10082D00255804D55804200501141209F6E4C0E03A
:10083D00120A807855E6601320E70714F612068039
:10084D00802204F6D0E014C0E07F00120680E55847
:10085D0060071206771558800B300503120677D006
:10086D00E00206D1D0E00480C51209D960A0E55898
:10087D00041201917855EAF6E5582005026001044D
:05088D0024041209F62D
:1008920074FF04C0E0120A80120680E558200502A7
:1008A2006003120677D0E0B558E87F4512068A78D1
:1008B20055E67F2B30E7047F2DF404C0E012069842
:1008C200D0E075F00A84C0F0120681D0E0120681F1
:1008D2000206D1791080027908C206C2088008D2C5
:1008E200D5790A8004790AC2D5E558047002F55810
:1008F200E4FAFDFEFF12065DFC7B082001131206DE
:100902005DFD7B1030000A12065DFE12065DFF7B64
:1009120020EC3382D592D55013C3E43000069FFFFA
:10092200E49EFEE42001039DFDE49CFCE4CBF8C2BE
:1009320001EC700CCFCECDCCE824F8F870F3801720
:10094200C3EF33FFEE33FEED33FDEC33FCEB33FB51
:10095200994002FB0FD8E9EB300105F8D0E0C4481A
:10096200B201C0E00AEC4D4E4F78207B0070C2EA23
:10097200B5580040BCC0E01209F8D0F0D0E0200128
:1009820004C4C0E0C4B201C0F0120681D0F0D5F0B8
:10099200EB0206D1120637076E5308D558073F4CB3
:1009A200073B4208D94F08E14408E149075443088C
:1009B200E75508184608764507E2470AAD5007434F
:1009C2002D07472E076A2B074B230768200A962A12
:1009D20007034800000762E558B4FF037558061282
:1009E200065DFC12065DFD12065DFE12065DFF78D5
:1009F2004E0201C0790AA2D5200314300509B910AC
:100A0200020404B9080104A2D52006025001042000
:100A120002689202B557005034C0E07F20300319BB
:100A22007F30A20272067205500F120A4FC202C232
:100A320006C205C2087F30800F300503E9C0E0120C
:100A42000698300503D0E0F9D0E0B557CC30051751
:100A52007F30B9100C1206987F583004077F7880D7
:100A620003B908031206983002057F2D0206987F0B
:100A7200202008F87F2B2006F322920280CF7F00ED
:100A8200B407005005244EF8E6FF22286E756C6C00
:100A92002900D20112065D3001F8C201785730D523
:100AA2000108F60207032D5043495812065D24033C
:100AB200B405004001E4900AA893120689743A1220
:0A0AC2000689D2037557040208D517
:10014700E9D2E7C933E833F892D5EDD2E7CD33ECFE
:0701570033FC5002B2D52277
:10015E00EC30E7100FBF000C0EBE00080DBD000402
:10016E000BEB6014A2D5EB13FCED92E7FD2274FFAE
:10017E00FCFDFEFF22E480F8A2D574FF13FC7D8007
:03018E00E480EF1B
:10019100F920E72824F950037907E4F42402FB1835
:1001A100DBFDE624FB5014E9600DE4F618E604F6E5
:0F01B100B40A08E4F6D9F57401F60A22C2D52281
:1001C000ED33EC3392D5FA602AB4FF33EDC2E77B0E
:1001D000FF60067A0179E5E4227A0179EE20D50400
:1001E0007A0179E9224E614E002B494E46002D4995
:1001F0004E4600E47A08F608DAFC7B00740722E831
:10020000C0E0ECC0E0EDC0E0EEC0E0EFC0E0EA75B9
:10021000F010A4CAABF075F04DA42BFBE435F0FC54
:10022000EA2410FAEB34C5FBEC34D9FCEDC2E7FF4D
:1002300075F056A4F42411C5F0F434C58FF0A42A47
:10024000E5F03BE43CF620E71412048BD0E0FFD04D
:10025000E0FED0E0FDD0E0FC1203BE8014F40412F6
:10026000048BD0E0FFD0E0FED0E0FDD0E0FC120037
:1002700003D0E0F8E6FAEDD2E7CD33EC332482FB8D
:10028000E4C3CF33CFCE33CECD33CD33DBF37B07D7
:1002900075F00A846004F6081B0AE5F0F6088FF092
:1002A000740AA4FFACF08EF0740AA42CFEACF050DB
:1002B000010C8DF0740AA42CFDE435F0F608DBDEA9
:0302C0007407229E
:1002C30002017CE86480F8E933E83360110460F0EC
:1002D300ED33EC337009E8FCE9FDEAFEEBFF2204A1
:1002E30060DED3EB9FEA9EE99DE8C2E78CF0C2F79C
:1002F30095F0400CE8CCF8E9CDF9EACEFAEBCFFB68
:1003030012014785D0F05804700320D5B3E8047078
:10031300075002B2D502018692D5EC0460F7E4CC13
:10032300C0E0C398F8603B94186008400DD0E0FB30
:1003330002015EE4FBFAC9FC8028E830E406E4C964
:10034300FBE4CAFCE830E305E4C9CACBFCE8540784
:100353006010F8C3E913F9EA13FAEB13FBEC13FC8F
:10036300D8F130F52FC3E49CFCEF9BFFEE9AFEED32
:1003730099FDD0E0FBEF4E4D4C701222DB030201DE
:1003830083EC2CFCEF33FFEE33FEED33FDED30E772
:10039300EB02015EEF2BFFEE3AFEED39FDD0E0FB01
:1003A30050130BBB0003020186ED13FDEE13FEEFAA
:0803B30013FFEC13FC02015ED4
:1003BB00020186EC5D046005E85904700302017CC0
:1003CB00120147580460F6EC4860F2EC7004FDFE35
:1003DB00FF22C860DB2481C85009C3986002500615
:1003EB000201839850CAF582E9294B4A7005AB820A
:1003FB0002017275F0007C1A7880C3EF9BEE9AEDC8
:10040B0099400DC3EF9BFFEE9AFEED99FDE842F08C
:10041B00DC23ACF0D0E0FFD0E0FED0E0FDAB8220DF
:10042B00E7101BEB60BAEC2CFCEF33FFEE33FEED69
:10043B0033FD02015EE803F830E705C0F075F0000C
:10044B00EF2FFFEE33FEED33FD40B830E7C280AA4D
:10045B003F8000004120000042C80000447A0000A9
:10046B00461C400047C35000497424004B1896802B
:10047B004CBEBC205A0E1BCA6753C21C749DC5AE22
:10048B00FB60065407601C23231204B9EB5438603D
:10049B00091204A51204B4120003ECF8EDF9EEFAFC
:1004AB00EFCB22EB1204B480F1543803241C9004DC
:1004BB005BFE93FC0EEE93FD0EEE930ECE93FF229E
:0300000002151ACC
:0C151A00787FE4F6D8FD75815A020FEED0
:1004CB00E709F608DFFA8046E709F208DFFA803E13
:1004DB0088828C83E709F0A3DFFA8032E309F60800
:1004EB00DFFA8078E309F208DFFA807088828C8368
:1004FB00E309F0A3DFFA806489828A83E0A3F6081C
:10050B00DFFA805889828A83E0A3F208DFFA804CF5
:10051B0080D280FA80C680D4806980F280338010CC
:10052B0080A680EA809A80A880DA80E280CA803335
:10053B0089828A83ECFAE493A3C8C582C8CCC583AD
:10054B00CCF0A3C8C582C8CCC583CCDFE9DEE7807D
:10055B000D89828A83E493A3F608DFF9ECFAA9F0FC
:10056B00EDFB2289828A83ECFAE0A3C8C582C8CC52
:10057B00C583CCF0A3C8C582C8CCC583CCDFEADE6B
:10058B00E880DB89828A83E493A3F208DFF980CCCD
:10059B0088F0EF60010E4E60C388F0ED2402B404C6
:1005AB000050B9F582EB2402B4040050AF2323456D
:0605BB00822390051B7372
:1005C100BB010689828A83E0225002E722BBFE0238
:0905D100E32289828A83E493226B
:1005DA00BB010CE58229F582E5833AF583E02250D6
:1005EA0006E92582F8E622BBFE06E92582F8E22220
:0D05FA00E58229F582E5833AF583E493223A
:10060700BB010689828A83F0225002F722BBFE01D2
:02061700F322CC
:0E061900C3E49FFFE49EFEE49DFDE49CFC22F2
:10062700FAE6FB0808E6F925F0F618E6CA3AF622D4
:10063700D083D082F8E4937012740193700DA3A352
:1006470093F8740193F5828883E473740293686066
:06065700EFA3A3A380DF66
:10139100EFB40A07740D12139C740A309811A899BE
:1013A100B8130CC2983098FDA899C298B811F630BC
:0713B10099FDC299F5992294
:00000001FF
