:03000000020A30C1
:0C0A3000787FE4F6D8FD758164020800B0
:1008C00053656C65637420746865206F7074696F1C
:1008D0006E003129536176652064617461003229AC
:1008E00052656164206461746100332945786974DC
:1008F00000456E74657220746865206461746120BF
:0C0900005B2A20746F2053746F705D0040
:0C0A3C00758920759850758DFDD28E22B2
:070A5E003098FDAF99C2982A
:010A6500226E
:070A21007F0A120A287F0D75
:080A28008F993099FDC299225B
:0B0A4800D2A0D2A10000C2A0C2A122D7
:0B0A5300C2A0D2A10000D2A0C2A122CC
:100A0A00120A487FA012099A120A1AE4FF12099AD6
:070A1A00D2A10000C2A122DD
:10099A00E4FBFAEFC4131313540124FF92A0EF25CA
:1009AA00E0FFD2A10000C2A10BBB00010AEB640860
:0909BA004A70E0A2A09200C2A064
:0109C3002211
:1009E800E4FFD2A0FDFCEF25E0FFD2A1000030A07B
:1009F800010FC2A10DBD00010CED64084C70E7C2E7
:010A0800A04D
:010A090022CA
:06093E008B628A638964EC
:10094400120A0AE4FDFCAB62AA63A9648D828C835B
:1009540012096DFF600D12099A120A1A0DBD0001E9
:090964000C80E3120A53020A1A86
:10090C00120A0A120A487FA112099A120A1AE4FB67
:10091C00FA1209E8AE07120A28120A1AEE642A60C3
:10092C000B0BBB00010AEB64144A70E5120A53026C
:02093C000A1A95
:0609C4008B628A63896466
:1009CA00E4FDFCAB62AA63A9648D828C8312096D73
:0D09DA00FF600A120A280DBD00010C80E626
:0109E70022ED
:10080000120A3CE4F521F522120A217BFF7A0879CD
:10081000C01209C4120A217BFF7A0879D21209C4D6
:10082000120A217BFF7A0879DE1209C4120A217BA1
:10083000FF7A0879EA1209C4120A21120A5E8F238C
:10084000E523643170687BFF7A0879F11209C4E40A
:10085000F560F5610522E52270020521D39410E5CB
:100860002164809480402B120A21E4F521F52212A4
:100870000A5E8F23120A2874242561F8A623E52333
:10088000B42A0F0561E561700205602424F8E4F6DE
:10089000801C7B007A00792412093E0561E56170B5
:1008A000020560C39414E5606480948040A6E5234B
:1008B000B4320312090CE5236433600302080822F2
:10096D00BB010CE58229F582E5833AF583E022503F
:10097D0006E92582F8E622BBFE06E92582F8E22289
:0D098D00E58229F582E5833AF583E49322A3
:00000001FF
