:03000000021615D0
:0C161500787FE4F6D8FD7581570212744E
:1014E70025642A0043757272656E742074656D7089
:1014F7002E3A200025352E3266002020202020207D
:1015070020005365742054656D703A2000256400EF
:1015BC00D3EF9400EE6480948040147DFB7C04EDAA
:0F15CC001D70011CED4C70F7EF1F70E41E80E1E5
:0115DB0022ED
:0C162100758920759850758DFDD28E22C1
:081643008F993099FDC2992234
:061517007B007A00792838
:06151D008B3C8A3D893E73
:10152300E4FDFCAB3CAA3DA93E8D828C83120D4E9B
:0D153300FF600A1216430DBD00010C80E69A
:011540002288
:0B162D00D291D2920000C291C2922222
:0B163800C291D2920000D291C2922217
:1015DC0012162D7FA01215411215ECE4FF121541C5
:0715EC00D2920000C292221E
:10154100E4FBFAEFC4131313540124FF9291EF2526
:10155100E0FFD2920000C2920BBB00010AEB6408CB
:091561004A70E0A2919209C291C6
:01156A00225E
:10156B00E4FFFED291FDFCEF25E0FFEE33FED292BD
:10157B0000003091050FBF00010EC2920DBD00019E
:09158B000CED64084C70E0C29103
:011594002234
:061455008B3C8A3D893E3C
:10145B001215DC12162D7FA11215411215ECE4F5B5
:10146B003FF54012156BAB3CAA3DA93E85408285EA
:10147B003F83EF120D8D1215ECBF2A12AB3CAA3D28
:10148B00A93E854082853F83E4120D8D8013054074
:10149B00E5407002053FC3940AE53F6480948040A9
:0714AB00C21216380215EC15
:0614B2007B007A0079289E
:0614B8008B3C8A3D893ED9
:1014BE001215DCE4FDFCAB3CAA3DA93E8D828C836B
:1014CE00120D4EFF600D1215411215EC0DBD0001EF
:0914DE000C80E31216380215EC33
:101274001216217B007A0079281214557B007A001B
:1012840079281213A78E228F23D2B7C2B67F027E8B
:10129400001215BCD2B620B5FDC2B7AFA07E007C4B
:1012A400017DF4120DAFAC06AD07EC120912E4FB9C
:1012B400FA797F78431208038F278E268D258C2494
:1012C400AC22AD23EC120912AB27AA26A925A82427
:1012D4001208A04004D2908002C2902096290523CF
:1012E400E52370020522753FFF7540147541E785BB
:1012F4002242F5437B007A007928120E611214B25F
:101304007F0A7E001215BC20972AE523152370025C
:101314001522753FFF7540147541E78522428523E8
:10132400437B007A007928120E611214B27F0A7E80
:10133400001215BC7BFF7A1479EB12151D753FFF63
:101344007540147541FB85274585264485254385CD
:1013540024427B007A007928120E611215177BFF54
:101364007A15790112151D7BFF7A15790912151D5D
:10137400753FFF7540157541148522428523437BD3
:10138400007A007928120E611215177F0A1216438B
:101394007F0D121643D2B77F057E001215BCD2B55D
:0313A40002128DA5
:1008000002098AEC5D046005E8590470030209805E
:1008100012094B580460F6EC4860F2EC7004FDFEDF
:10082000FF22C860DB2481C85009C39860025006CB
:100830000209879850CAF582E9294B4A7005AB82B4
:1008400002097675F0007C1A7880C3EF9BEE9AED72
:1008500099400DC3EF9BFFEE9AFEED99FDE842F043
:10086000DC23ACF0D0E0FFD0E0FED0E0FDAB822096
:10087000E7101BEB60BAEC2CFCEF33FFEE33FEED20
:1008800033FD020962E803F830E705C0F075F000B7
:10089000EF2FFFEE33FEED33FD40B830E7C280AA04
:1008A00074F8CC6480CCC86480C8F582046043C30B
:1008B000EB9FF5F0EA9E42F0E99D42F0E89C45F09E
:1008C00060305018E5825FFFE582F42B5582FB50C3
:1008D000210ABA001D09B90019088016E5825BFBE0
:1008E000E582F42F5582FF50090EBE00050DBD00B4
:1008F000010CC3EB9FF5F0EA9E42F0E99D42F0E85F
:0D0900009C45F06007CC4820E701B3EC22D5
:10090D0075F020800E75F010800575F0087D007E65
:10091D00007F003392D530D503120DC1EC3340105A
:10092D00EF33FFEE33FEED33FDEC33FCD5F0ED226E
:0E093D00E5F0247EA2D513CC92E7CDCEFF22AA
:100E0500E553243FF8E6055322783C300702783F46
:100E1500E475F001120DCF020D352000EB7F2ED2C7
:100E2500008018EF540F2490D43440D4FF30040BC5
:100E3500EF24BFB41A0050032461FFE55460021586
:100E4500540557E5577002055630070D783CE47593
:100E5500F001120DCFEF020D7B0215957403D20739
:100E65008003E4C207F5538B3C8A3D893EE4F55483
:100E7500F556F557E55460077F20120E4080F5754D
:100E850055FFC201C200C202C203C205C206C208A2
:100E9500120E0EFF700D3007057F00120E51AF5771
:100EA500AE5622B4255FC2D5C204120E0EFF24D061
:100EB500B40A00501A75F00A785430D50508B6FF03
:100EC5000106C6A426F620D5047002D20380D924D3
:100ED500CFB41A00EF5004C2E5D20402113ED2018C
:100EE50080C6D20080C0D20280BCD2D580BAD205DD
:100EF50080B47F20120E402002077401B5540040D3
:100F0500F1120E05FF120E40020E79D208D20680AC
:100F150095120E05FB120E05FA120E05F94A4B70D5
:100F25000679357A127BFF20022EE554602A7E0071
:100F35008E82758300120D4E60060EEE655570F0BB
:100F4500C2D5EBC0E0EAC0E0E9C0E0EE12119ED0E8
:100F5500E0F9D0E0FAD0E0FB120D35FF60AAEBC056
:100F6500E0EAC0E0E9C0E0120E40D0E02401F9D08B
:100F7500E03400FAD0E0FBE5550460DCD555D980B6
:100F850087D20280A212118160F7E5557001041223
:100F95000995A955600DE555600914F555121228F6
:100FA500EF60F3EA30E702F404C3995077EAF425D9
:100FB500550430E701E404F555800D12118160C137
:100FC500EA05552555120995EA7852F630E701E408
:100FD500255504D555042005011412119EE4C0E0E1
:100FE5001212287852E6601320E70714F6120E282D
:100FF500802204F6D0E014C0E07F00120E28E555EB
:101005006007120E1F1555800B300503120E1FD0F9
:10101500E0020E79D0E00480C512118160A0E5558B
:10102500041209957852EAF6E55520050260010497
:05103500240412119ECD
:10103A0074FF04C0E0121228120E28E5552005029A
:10104A006003120E1FD0E0B555E87F45120E3278C4
:10105A0052E67F2B30E7047F2DF404C0E0120E40E5
:10106A00D0E075F00A84C0F0120E29D0E0120E29E1
:10107A00020E79791080027908C206C2088008D265
:10108A00D5790A8004790AC2D5E555047002F55566
:10109A00E4FAFDFEFF120E05FC7B08200113120E76
:1010AA0005FD7B1030000A120E05FE120E05FF7BAD
:1010BA0020EC3382D592D55013C3E43000069FFF4B
:1010CA00E49EFEE42001039DFDE49CFCE4CBF8C20F
:1010DA0001EC700CCFCECDCCE824F8F870F3801771
:1010EA00C3EF33FFEE33FEED33FDEC33FCEB33FBA2
:1010FA00994002FB0FD8E9EB300105F8D0E0C4486B
:10110A00B201C0E00AEC4D4E4F78207B0070C2EA73
:10111A00B5550040BCC0E01211A0D0F0D0E02001CB
:10112A0004C4C0E0C4B201C0F0120E29D0F0D5F058
:10113A00EB020E79120DDF0F1653107D580EE74C95
:10114A000EE34210814F1089441089490EFC431066
:10115A008F550FC046101E450F8A471255500EEB89
:10116A002D0EEF2E0F122B0EF3230F1020123E2AF4
:10117A000EAB4800000F0AE555B4FF037555061279
:10118A000E05FC120E05FD120E05FE120E05FF7865
:10119A004B0209C4790AA2D5200314300509B910F3
:1011AA00020404B9080104A2D52006025001042051
:1011BA0002689202B554005034C0E07F203003190F
:1011CA007F30A20272067205500F1211F7C202C2D4
:1011DA0006C205C2087F30800F300503E9C0E0125D
:1011EA000E40300503D0E0F9D0E0B554CC300517F5
:1011FA007F30B9100C120E407F583004077F788078
:10120A0003B90803120E403002057F2D020E407FFB
:10121A00202008F87F2B2006F322920280CF7F003D
:10122A00B407005005244BF8E6FF22286E756C6C53
:10123A002900D201120E053001F8C201785430D5C6
:10124A000108F6020EAB2D50434958120E0524032D
:10125A00B405004001E490125093120E31743A1210
:0A126A000E31D20375540402107D0A
:10094B00E9D2E7C933E833F892D5EDD2E7CD33ECF2
:07095B0033FC5002B2D5226B
:10096200EC30E7100FBF000C0EBE00080DBD0004F6
:100972000BEB6014A2D5EB13FCED92E7FD2274FFA2
:10098200FCFDFEFF22E480F8A2D574FF13FC7D80FB
:03099200E480EF0F
:10099500F920E72824F950037907E4F42402FB1829
:1009A500DBFDE624FB5014E9600DE4F618E604F6D9
:0F09B500B40A08E4F6D9F57401F60A22C2D52275
:1009C400ED33EC3392D5FA602AB4FF33EDC2E77B02
:1009D400FF60067A0979E9E4227A0979F220D504DC
:1009E4007A0979ED224E614E002B494E46002D497D
:1009F4004E4600E47A08F608DAFC7B00740722E825
:100A0400C0E0ECC0E0EDC0E0EEC0E0EFC0E0EA75AD
:100A1400F010A4CAABF075F04DA42BFBE435F0FC48
:100A2400EA2410FAEB34C5FBEC34D9FCEDC2E7FF41
:100A340075F056A4F42411C5F0F434C58FF0A42A3B
:100A4400E5F03BE43CF620E714120CF5D0E0FFD0CF
:100A5400E0FED0E0FDD0E0FC1208038014F40412A0
:100A64000CF5D0E0FFD0E0FED0E0FDD0E0FC120BAE
:100A7400BFD0E0F8E6FAEDD2E7CD33EC332482FBC5
:100A8400E4C3CF33CFCE33CECD33CD33DBF37B07CB
:100A940075F00A846004F6081B0AE5F0F6088FF086
:100AA400740AA4FFACF08EF0740AA42CFEACF050CF
:100AB400010C8DF0740AA42CFDE435F0F608DBDE9D
:030AC40074072292
:100AC700020980E86480F8E933E83360110460F0D4
:100AD700ED33EC337009E8FCE9FDEAFEEBFF220495
:100AE70060DED3EB9FEA9EE99DE8C2E78CF0C2F790
:100AF70095F0400CE8CCF8E9CDF9EACEFAEBCFFB5C
:100B070012094B85D0F05804700320D5B3E8047060
:100B1700075002B2D502098A92D5EC0460F7E4CCFB
:100B2700C0E0C398F8603B94186008400DD0E0FB24
:100B3700020962E4FBFAC9FC8028E830E406E4C94C
:100B4700FBE4CAFCE830E305E4C9CACBFCE8540778
:100B57006010F8C3E913F9EA13FAEB13FBEC13FC83
:100B6700D8F130F52FC3E49CFCEF9BFFEE9AFEED26
:100B770099FDD0E0FBEF4E4D4C701222DB030209CA
:100B870087EC2CFCEF33FFEE33FEED33FDED30E762
:100B9700EB020962EF2BFFEE3AFEED39FDD0E0FBE9
:100BA70050130BBB000302098AED13FDEE13FEEF92
:080BB70013FFEC13FC020962BC
:100BBF00EC4D6011E8497017ED33EC3304600DE430
:100BCF00FCFFFEFD22E933E8330470F802098012BE
:100BDF00094B58046009E4CC2481500628500902BF
:100BEF00098A284003020987C0E0EB4A7044B980A4
:100BFF0006D0E0FB020976EF4E701CBD8008EBFFBC
:100C0F00EAFEE9FD80EBE98DF0A4FEE5F0020CA809
:100C1F00E9CDF9EAFEEBFFEF89F0A4FCE5F0CE8910
:100C2F00F0A42EFFE435F0CD89F0A42DFEE435F0CD
:100C3F008067EF4E7005BD80D780C3EF8BF0A4ACFB
:100C4F00F0EE8BF0A42CFCE435F0F8EF8AF0A42C36
:100C5F00E5F038FCE433CB8DF0A42CFCE5F03BF849
:100C6F00EE8AF0A42CFCE5F038F8E433CF89F0A439
:100C7F002CFCE5F038CF3400CE89F0A42FFFE5F03F
:100C8F003EFEE433C98DF0A42EFEE5F039CD8AF097
:100C9F00A42FFFE5F03EFEE43DFD33D0E0FB50070F
:100CAF000BBB000F02098AEC2CFCEF33FFEE33FE77
:060CBF00ED33FD020962A5
:100CC5003F8000004120000042C80000447A000037
:100CD500461C400047C35000497424004B189680B9
:100CE5004CBEBC205A0E1BCA6753C21C749DC5AEB0
:100CF500FB60065407601C2323120D23EB54386058
:100D050009120D0F120D1E120BBFECF8EDF9EEFADC
:100D1500EFCB22EB120D1E80F1543803241C900CEE
:100D2500C5FE93FC0EEE93FD0EEE930ECE93FF22C1
:100D3500BB010689828A83E0225002E722BBFE02BC
:090D4500E32289828A83E49322EF
:100D4E00BB010CE58229F582E5833AF583E022505A
:100D5E0006E92582F8E622BBFE06E92582F8E222A4
:0D0D6E00E58229F582E5833AF583E49322BE
:100D7B00BB010689828A83F0225002F722BBFE0157
:020D8B00F32251
:100D8D00F8BB010DE58229F582E5833AF583E8F09C
:100D9D00225006E92582C8F622BBFE05E92582C848
:020DAD00F22230
:100DAF00EF8DF0A4A8F0CF8CF0A428CE8DF0A42E58
:020DBF00FE2212
:0E0DC100C3E49FFFE49EFEE49DFDE49CFC2243
:100DCF00FAE6FB0808E6F925F0F618E6CA3AF62225
:100DDF00D083D082F8E4937012740193700DA3A3A3
:100DEF0093F8740193F5828883E4737402936860B7
:060DFF00EFA3A3A380DFB7
:10159500EFB40A07740D1215A0740A309811A899B2
:1015A500B8130CC2983098FDA899C298B811F630B6
:0715B50099FDC299F599228E
:1013A7008B3C8A3D893EAB3CAA3DA93E120D35FFD9
:1013B7001215F3500D7401253EF53EE4353DF53D1C
:1013C70080E4D200AB3CAA3DA93E120D35FF642B49
:1013D7006004EFB42D1BAB3C053EE53EAA3D700211
:1013E700053D14F9120D35642D6003D38001C392B6
:1013F70000E4F53FF540AB3CAA3DA93E120D35FF91
:101407001216065036AB3CAA3DA93E120D35FF33E6
:1014170095E0FEEF24D0FBEE34FFFAAE3FAF407C01
:10142700007D0A120DAFEF2BF540EE3AF53F740140
:10143700253EF53EE4353DF53D80BB300006AE3F29
:0E144700AF408009C3E49540FFE4953FFE22CC
:0F160600EFC394304007EF943A50028001C322A3
:1015F300EFC394094005EF940E4003BF2003D3804B
:0316030001C322FE
:00000001FF
