:03000000020103F7
:0C010300787FE4F6D8FD75810702000348
:1000E300E4FDFCC3ED9FEC9E5015E4FBFA0BBB0053
:0F00F300010ABA04F8BBFBF50DBD00010C80E457
:0101020022DA
:10004300D2A4D2A5D2A6D2A7C2A0C2A1C2A2C2A341
:1000530020A7037F312220A6037F342220A5037F1C
:08006300372220A4027F2A22AB
:10006B00D2A4D2A5D2A6D2A7C2A0C2A1C2A2C2A319
:10007B0020A7037F322220A6037F352220A5037FF2
:08008B00382220A4027F30227C
:10009300D2A4D2A5D2A6D2A7C2A0C2A1C2A2C2A3F1
:1000A30020A7037F332220A6037F362220A5037FC8
:0800B300392220A4027F232260
:1000BB00D2A4D2A5D2A6D2A7C2A0C2A1C2A2C2A3C9
:1000CB0020A7037F412220A6037F422220A5037F86
:0800DB00432220A4027F44220D
:0C010F00758920759850758DFDD28E22E8
:08011B008F993099FDC2992271
:1000030012010F7F1E7E001200E375A00FE5A064AE
:100013000F60FA20A307120043A907801C20A20740
:1000230012006BA907801220A107120093A9078071
:100033000820A0051200BBA907AF0112011B80C352
:00000001FF
